:060000000A128A110C280F
:10000800FE00030EF0000A08F1000A128A112A2ADB
:100018000A128A110F288313AD30FD000330FE0049
:100028004230FF00A03084000A128A1124230A12E9
:100038008A114330FD000230FE009330FF0020306B
:1000480084000A128A1124230A128A110A128A11B8
:1000580067230A128A11FB004330840063300A12B6
:100068008A114F23FA0183010A128A11F329831294
:100078000313EB00EA01EA0A6B08031D4528EA01AD
:10008800AE2894126B080A128A1120210A128A11CA
:10009800831203136B08033E8400033083130006A6
:1000A800031969286B08033E84000230000603190F
:1000B80069286B08033E84000003031969286B084C
:1000C800033E84000008031D6F286B080A128A117A
:1000D800D9220A128A11831203136B08033E840083
:1000E800053083130006031980286B08033E84003B
:1000F80004300006031D86286B080A128A115F2245
:100108000A128A11831203136B0884008313000CEC
:10011800031C1412031814166B0A8400000C8316AF
:100128000313031C141303181417831203136B0807
:10013800023E8400000C83160313031C9413031857
:100148009417831203136B080A128A11312383123E
:10015800031394166A080800F900F801F80A7908E8
:10016800031D0729F8011E290130F20079088400CF
:10017800000CF300F30C730C0739013EC52803107B
:10018800F20DFF3E031DC3287208FF3AF4007908F8
:10019800840000080739F50075072A3E8400000826
:1001A800F600840A0008F700760884008317771C95
:1001B8008313740880051E290130F2007908840031
:1001C800000CF300F30C730C0739013EED28031003
:1001D800F20DFF3E031DEB287208F4007908840035
:1001E80000080739F50075072A3E84000008F60064
:1001F800840A0008F700760884008317771C8313A5
:10020800740880041E29790884008313000EF20004
:10021800F20C720C0139F300F4017408003A031966
:100228001629B6287308003A0319B828013A0319A1
:10023800E028B62878080800F4004A298312031336
:100248001408F039013894000800831203131408C5
:10025800F039043894000800831203131408F039A5
:10026800033894000800831203131408F039023885
:1002780094000800831203131408F039013894001D
:100288000800F03083120313940508007408033E35
:10029800840083130008F200F3017308003A03197D
:1002A80056296A297208003A03194529013A03199F
:1002B8003E29033A03193729013A03193029073A25
:1002C80003192929013A031922296A2908008312E6
:1002D8000313E400E301E30A64080319832972089D
:1002E80003198329640884008313000CF300F30CBA
:1002F800730C0739F40008307402031C8529E301E4
:10030800AF296408840000080739F3007307203E0A
:1003180084000008F400840A0008F50074088400CA
:100328008317751C83130008F60064088400831380
:10033800000CF700F70C770C0739013EA5290310CC
:10034800F60CFF3E031DA32976080139F800720850
:100358008400780880006308080083120313E8000B
:10036800E701E9016808031D7908031DBD29E701B4
:10037800F1296930E5006508F20068080A128A1157
:100388006B210A128A11DB296903031DCF29790819
:1003980084008001F129790884008001800AF1290C
:1003A80069030319CF29CB29E701E70AF129831249
:1003B80003136808023E840083130008E500E60181
:1003C8006608003A0319E929D8296508003A03198B
:1003D800C829013A0319D429D829670808004030E8
:1003E8000A128A110D230A128A1183120313EC00D0
:1003F8006C08B400A8300A128A113B200A128A112C
:1004080083120313EC006C08B4007B30EC006C081A
:10041800F90040300A128A11B1210A128A11831296
:100428000313ED006D08B4007B08031D092A613031
:10043800EC006C08F200A8300A128A11F8220A129D
:100448008A1183120313ED006D08082A831203131F
:100458000C080C1D342A0A128A1163230A128A1105
:10046800831203130D1C3D2A0A128A115F230A12F4
:100478008A11831203130C1E462A0A128A11572363
:100488000A128A11831203138C1E4F2A0A128A1128
:1004980068230A128A11831203138C1D582A0A1220
:1004A8008A115B230A128A1171088A00700E830070
:1004B800FE0E7E0E090083120313E4003808E300E1
:1004C8006308E6003708E3006308E7003608E3003E
:1004D8006308E8003508E3006308E90066300A129B
:1004E8008A11B0200A128A1167300A128A11B020C4
:1004F8000A128A1168300A128A11B0200A128A1167
:10050800831203136408033E840004308313000637
:10051800031D080069300A128A11B020080005344A
:100528000034063400340734003408340034093405
:1005380000348534003486340034873400348834F9
:10054800003489340034013468345A3462342A342B
:100558001A3462342A340134013401340134413408
:100568000134003402308A000408840A8207003407
:100578003734383439342F343434353436342A3433
:100588003134323433342D34233430343D342B3445
:10059800013400340A34003464340034E834033459
:1005A80010342734253469340034831203133B088C
:1005B800E3006308E6003A08E3006308E700390847
:1005C800E3006308E80066300A128A11B0200A12B4
:1005D8008A1167300A128A11B0200A128A1168300B
:1005E8000A128A11B0200800F300F401F40A730813
:1005F800031D002BF4010B2B7208831203139300C5
:1006080083160313141C042B831203138C11740810
:10061800080083120313E5006508031D152BE40188
:100628001E2B65080A128A11B02083120313E300F7
:100638006308E400640808007E088A007F088200D6
:1006480020230A128A118000840A04087D060319EF
:100658000034FF0A0319FE0A242BF3008B170B172B
:10066800831603138C157308043E84008313000853
:10067800F200720883120313CC00080002340A3413
:1006880012341A3462346A3472347A3400340134DD
:1006980000340034003464008001840A040603191D
:1006A80000340406502B831603130C12080083121F
:1006B80003138C110800831203130D100800831212
:0A06C80003130C11080001340800B0
:08400000FF3FFF3FFF3FFF3FC0
:02400E00713F00
:00000001FF
