:060000000A128A110C280F
:10000800FE00030EF2000A08F3000A128A11192CE6
:100018000A128A110F288313E730FD000F30FE0003
:100028004C30FF00C93084000A128A150E270A12C4
:100038008A110A128A15B7260A128A11F6000A12BC
:100048008A15B8260A128A11F7000A128A15B926E3
:100058000A128A11F8000A128A15BA260A128A1197
:10006800F900A0308400C9300A128A15DB260A126A
:100078008A11663084006F300A128A15DB268301E4
:100088000A128A11B02D831203134B088039D0004D
:100098005008D8004B08D0005007D1005108DA00AA
:1000A800CA1B5A145A08031967285A0A031D6428D8
:1000B8000030CB000030CA000030C9000030C80052
:1000C800CA17CB016F280030CB000030CA000030BF
:1000D800C9000030C8004F088039D0005008D90046
:1000E80059085806031D58174F08D0005007D1006B
:1000F8005108D900CE1B5914590803199128590AD7
:10010800031D8E280030CF000030CE000030CD0017
:100118000030CC00CE17CF0199280030CF00003036
:10012800CE000030CD000030CC005A085902031828
:10013800DF28581FA3288030D0005008D8065A0856
:10014800D0005008DB005908D0005008DA005B08DE
:10015800D0005008D9004808D0005008DB004C08EF
:10016800D0005008C8005B08D0005008CC004908EF
:10017800D0005008DB004D08D0005008C9005B08CB
:10018800D0005008CD004A08D0005008DB004E08C7
:10019800D0005008CA005B08D0005008CE004B08B9
:1001A800D0005008DB004F08D0005008CB005B0897
:1001B800D0005008CF00DB015908D000D101510808
:1001C800D3005A085002D200031CD3035308803AC4
:1001D800FF0080307F02031DF3281A305202031CEF
:1001E8002C29831203134B084A04490448040319B1
:1001F800FF28013000290030D0005008DB00003013
:10020800CB000030CA000030C9000030C8005908CF
:10021800D0005008DA0032295B1C1B295B08D0008B
:100228000310500C0138D1005108DB001D290310C0
:10023800DB0C4818DB170130D0004B0DCB0CCA0C77
:10024800C90CC80CD00B21290130D0005008DA079E
:100258008312031359085A02031C1029581B7329C7
:100268005A08031D40290030CB000030CA00003076
:10027800C9000030C80008004C08C8074D08031121
:100288000318013E031DC9074E0803110318013E58
:10029800031DCA074F0803110318013E031DCB07AE
:1002A8004B1C152A5B1C61295B08D0000310500CFD
:1002B8000138D1005108DB0063290310DB0C481812
:1002C800DB170130D0004B0DCB0CCA0CC90CC80C85
:1002D800D00B67290130D0005008DA07152A4B08DF
:1002E800803AFF004F08803A7F02031D85294E0897
:1002F8004A02031D85294D084902031D85294C081A
:1003080048020318DD29FF30D000FF30D100FF304C
:10031800D200FF30D3004C08D4004D08D5004E0859
:10032800D6004F08D7004808D4024908031C490FD3
:100338009E299F29D5024A08031C4A0FA429A529EA
:10034800D6024B08031C4B0FAA29AB29D702540825
:10035800D00755080318550FB229B329D1075608F5
:100368000318560FB829B929D20757080318570A8E
:10037800D3075308CB005208CA005108C9005008D7
:10038800C8008030D0005008D806DB09DB0A5B08BB
:10039800031DEB290130C807003003180130C907D5
:1003A800003003180130CA07003003180130CB07AA
:1003B800EB294C08C8024D08031C4D0FC9024E0812
:1003C800031C4E0FCA024F08031C4F0FCB024B08E9
:1003D8004A0449044804031D132A5B08031D132A11
:1003E8000030CB000030CA000030C9000030C8001F
:1003F80008000130D0000310C80DC90DCA0DCB0D7F
:10040800D00BFF29DB1B48145B1C0C2A03140D2A94
:100418000310DB0D5A080319132A0130DA02CA1F28
:10042800FD29D901DB1F202A5B087F3903194818E9
:100438001E2A202AD901D90A59080319532A01303A
:10044800C807003003180130C9070030031801300D
:10045800CA07003003180130CB074B1C532A480841
:10046800D0004908D1004A08D2004B08D300013017
:10047800D400530DD30CD20CD10CD00CD40B3D2A84
:100488005308CB005208CA005108C9005008C800D8
:100498005A0A0319532A0130D0005008DA075A0AB9
:1004A800031D5A08031D632A0030CB000030CA0020
:1004B8000030C9000030C8005A080319D8015A1C76
:1004C800672ACA176B2A7F30D0005008CA055A0815
:1004D800D0000310500CD1005108CB00D81F0800E1
:1004E800CB1708008312031335088039B600360885
:1004F800BF003508B6003607B7003708C600B41B7A
:10050800461446080319962A460A031D932A003002
:10051800B5000030B4000030B3000030B200B417AA
:10052800B5019E2A0030B5000030B4000030B30099
:100538000030B20031088039B6003608BF063108ED
:10054800B6003607B7003708C700B01B471447087E
:100558000319BC2A470A031DB92A0030B10000302C
:10056800B0000030AF000030AE00B017B101C42AAF
:100578000030B1000030B0000030AF000030AE00F5
:10058800310830042F042E04031DE32A0030B5007F
:100598000030B4000030B3000030B2008030B40442
:1005A8007F30B5043F08B6003608B5043508B100F9
:1005B8003408B0003308AF003208AE00080046081F
:1005C800031DEF2A0030B1000030B0000030AF004A
:1005D8000030AE0008004608B600B7013708B90079
:1005E80047083602B800031CB90338087F3EC0002C
:1005F80039080318013E003EC1003508BE00340822
:10060800BD003308BC003208BB000030B500003024
:10061800B4000030B3000030B2000030C500003034
:10062800C4000030C3000030C200C7011A304702BE
:100638000318622B470803193E2B0130B60003103C
:10064800BB0DBC0DBD0DBE0DB60B232B0130B60086
:100658000310B20DB30DB40DB50DB60B2C2BC51B85
:1006680032140130B6000310C20DC30DC40DC50D00
:10067800B60B372B31083E02031D4C2B30083D02C8
:10068800031D4C2B2F083C02031D4C2B2E083B024C
:10069800031C5D2B45172E08BB022F08031C2F0FC8
:1006A800BC023008031C300FBD023108031C310F97
:1006B800BE020130B6003608C7071A2B3E083D04B3
:1006C8003C043B04031D4214B41B852B0130B600C7
:1006D8000310B20DB30DB40DB50DB60B6C2BC51BC5
:1006E80032140130B6000310C20DC30DC40DC50D80
:1006F800B60B772BFF30C0070318C10AFF30C107BC
:10070800682BC701C51F9E2BFF304205B600FF307E
:100718004305B700FF304405B8007F304505B900F0
:100728003908380437043604031932189C2B9E2BD9
:10073800C701C70A47080319D02B0130B207003098
:1007480003180130B307003003180130B407003034
:1007580003180130B507351CD02B3208B600330812
:10076800B7003408B8003508B9000130BA00390DAF
:10077800B90CB80CB70CB60CBA0BBB2B3908B500C2
:100788003808B4003708B3003608B2000130C00793
:100798000318C10A0030C1074108803AFF008030C1
:1007A8007F02031DD92BFF304002031CE92BFF30C9
:1007B80083120313C0000030C1000030B5000030C0
:1007C800B4000030B3000030B200831203134108B4
:1007D800803AFF0080307F02031DF42B0130400275
:1007E8000318032C83120313C001C1010030B500A4
:1007F8000030B4000030B3000030B200BF018312F3
:1008080003134008B6003608C600461C0D2CB41762
:10081800112C7F30B6003608B4054608B600031020
:10082800360CB7003708B500D62A8B1C202C0A12C4
:100838008A11FD270A128A110B1C302C831203130C
:10084800061E302C7903031D302CF90100300A12E2
:100858008A15BB260A128A110B1C432C8312031318
:10086800061A432C7908031D432C0130F100710846
:10087800F90001300A128A15BB260A128A110B1CCC
:10088800532C83120313861E532C7803031D532CF9
:10089800F80100300A128A15C1260A128A110B1CA7
:1008A800662C83120313861A662C7808031D662C9F
:1008B8000130F1007108F80001300A128A15C126CA
:1008C8000A128A110B1C762C83120313061F762C2E
:1008D8007703031D762CF70100300A128A15C72604
:1008E8000A128A110B1C892C83120313061B892CEC
:1008F8007708031D892C0130F1007108F7000130D9
:100908000A128A15C7260A128A110B1C992C8312FF
:100918000313861F992C7603031D992CF6010030CA
:100928000A128A15CD260A128A110B1CAC2C8312C6
:100938000313861BAC2C7608031DAC2C0130F10088
:100948007108F60001300A128A15CD260A128A119A
:10095800831203130C1FB52C0A128A159F260A123C
:100968008A110B1DBC2C0A128A15D3260A128A1169
:10097800831203130C1CC52C0A128A15FA260A12B4
:100988008A11831203138C1CCE2C0A128A15E326B3
:100998000A128A11831203130C1DD72C0A128A1506
:1009A800A3260A128A11831203130D1CE02C0A12C3
:1009B8008A15A7260A128A11831203130C1EE92C22
:1009C8000A128A15B3260A128A11831203138C1E7F
:1009D800F22C0A128A11FF270A128A1183120313B2
:1009E8008C1DFB2C0A128A15AF260A128A1183164F
:1009F80003138D1D042D0A128A15AB260A128A11BB
:100A080073088A00720E8300FE0E7E0E09008312A0
:100A18000313A8002808031DA31F222D2009AA00DC
:100A28002109AB002209AC002309AD00AA0A031969
:100A3800AB0A0319AC0A0319AD0A2A2D2308AD0025
:100A48002208AC002108AB002008AA0023082204D1
:100A580021042004031D392D0030A3000030A2001A
:100A68000030A1000030A00008009630A40024083F
:100A7800A900FE302D0503196A2D0130A4002408B1
:100A8800A90701300310AD0CAC0CAB0CAA0CFF3E4F
:100A9800031D462D3D2D0130A4002408A90701306F
:100AA800AA07003003180130AB07003003180130E3
:100AB800AC07003003180130AD0701300310AD0C4E
:100AC800AC0CAB0CAA0CFF3E031D622DFF302D05AC
:100AD80003197E2D4F2D02302902031C802D013071
:100AE800A9020130A4000310AA0DAB0DAC0DAD0D89
:100AF800A40B772DAC1F6F2D29188A2DFF30AA055E
:100B0800FF30AB057F30AC05FF30AD050310A90CF5
:100B18002908A400A501A601A70118300310A40DF7
:100B2800A50DA60DA70DFF3E031D922D2408AA04AE
:100B38002508AB042608AC042708AD042808031DC3
:100B4800A31FA72DAD172D08A3002C08A2002B0862
:100B5800A1002A08A000080083160313BE103E1443
:100B68003E150030BC000130BB008630BA00A03012
:100B7800B9000830E9006908BD00B9300A128A11C5
:100B88001C270A128A1183160313E9006908DD007D
:100B9800603083160313E900690883120313A20067
:100BA80061300A128A15B6270A128A11063083168E
:100BB8000313EB001330EA00AD30E900E90BE22D36
:100BC800EA0BE22DEB0BE22D623083160313E900EA
:100BD800690883120313A20062300A128A15B62725
:100BE8000A128A11063083160313EB001330EA0049
:100BF800AD30E900E90BFE2DEA0BFE2DEB0BFE2DC7
:100C0800603083160313E900690883120313A200F6
:100C180063300A128A15B6270A128A11063083161B
:100C28000313EB001330EA00AD30E900E90B1A2E8C
:100C3800EA0B1A2EEB0B1A2E623083160313E90007
:100C4800690883120313A20064300A128A15B627B2
:100C58000A128A11063083160313EB001330EA00D8
:100C6800AD30E900E90B362EEA0B362EEB0B362EAB
:100C7800CC2DF500F401F40A7508031D942EF40137
:100C8800AD2E0130A00075088400000CA100A10C55
:100C9800210C0739013E522E0310A00DFF3E031D03
:100CA800502E2008FF3AA200750884000008073972
:100CB800A3002307D33E84000008A400840A000888
:100CC800A500240884008317251C831322088005A7
:100CD800AD2E0130A00075088400000CA100A10C05
:100CE800210C0739013E7A2E0310A00DFF3E031D8B
:100CF800782E2008A2007508840000080739A30090
:100D08002307D33E84000008A400840A0008A50035
:100D1800240884008317251C831322088004AD2E21
:100D2800750884008313000E83120313A000A00C1F
:100D3800200C0139A100A2012208003A0319A52EAE
:100D4800432E2108003A0319452E013A03196D2E46
:100D5800432E740808000310831203135E0D5F0D01
:100D6800E0006008F5007508031DC32E0030DF00A1
:100D78000030DE000030DD000030DC0008005C08D8
:100D8800E0005D08E1005E08E2005F08E3001F3054
:100D98000310E30CE20CE10CE00CFF3E031DCC2E2B
:100DA8006008E4006408F400DE17FF30DC05FF305B
:100DB800DD05FF30DE050030DF059630F502F51F52
:100DC800FA2E7508803A973E031CBA2E013003109C
:100DD800DF0CDE0CDD0CDC0CFF3E031DEB2E0130BE
:100DE800E0006008F50703190D2FEA2E2030750280
:100DF8000318BA2E750803190D2F0130E0000310EF
:100E0800DC0DDD0DDE0DDF0DE00B032F0130F502EB
:100E1800FE2E740803190800DC09DD09DE09DF0964
:100E2800DC0A0319DD0A0319DE0A0319DF0A0800C0
:100E380083160313E800E701E70A6808031D262F55
:100E4800E701822F83120313941283160313680891
:100E5800053E84008313001C382F68080A128A1183
:100E680086270A128A115B2F6808053E840000183D
:100E78005B2F6808073E8400001C442F9117492FF8
:100E88006808073E8400001C91138312031314168C
:100E980094131413831603136808063E840000088D
:100EA800930068080A128A15ED260A128A110A1296
:100EB8008A1531270A128A11831603136808053E1A
:100EC8008400831300196A2F94136F2F6808053E56
:100ED8008400001994176808053E8400801C762F4A
:100EE80014177B2F6808053E8400801C14136808BB
:100EF8000A128A156A27831203139416831603139A
:100F08006708080083120313E5006508043E84009F
:100F1800140883130006F039000694004930B50020
:100F28007430B4002430B3000030B2006508840087
:100F38000008A000840A0008A100840A0008A20092
:100F4800840A0008A30001300A128A110B250A122C
:100F58008A11831203132308B1002208B000210864
:100F6800AF002008AE000A128A1176220A128A11EE
:100F7800831203133108CF003008CE002F08CD00AC
:100F88002E08CC00BF30CB008030CA000030C9002A
:100F98000030C8000A128A1147200A128A118312E7
:100FA80003134B08DF004A08DE004908DD00480843
:100FB800DC000A128A11AF26831203135C08831619
:100FC800031393000800F4007408031DED2FF501C6
:100FD800FB2F8316031311151119F02F8312031316
:100FE8008C1183160313141EEB2FF501F50A7508EF
:100FF80008008B100800080008308A000408840ADA
:10100800820700343734383439342F3434343534A3
:1010180036342A343134323433342D3423343034B2
:101028003D342B34013400340A3400346434003441
:0E103800E8340334103427342534693400348E
:101D3E00831203130C130800831203130C110800F3
:101D4E00831203130D100800831203138D11080064
:101D5E00831203138C110800831603130C12080050
:101D6E000134013401340134F0000B107003031DF3
:101D7E0008000800F0000B107003031D0800080097
:101D8E00F0000B107003031D08000800F0000B108C
:101D9E007003031D08000800831603132A0883121C
:101DAE00031381000B11080064008001840A0406ED
:101DBE00031900340406DC2E831203138C108316D1
:101DCE00031327088312031391000800F40074080C
:101DDE00043E840083120313140883130006F039A3
:101DEE00000694000800831203130C1083160313CD
:101DFE002108831203138F00831603132008831206
:101E0E0003138E0008007E088A007F0882000A27CE
:101E1E000A128A158000840A04087D06031900340C
:101E2E00FF0A0319FE0A0E2FF4007408031D212F5A
:101E3E00F5012F2F8316031311141118242F83125B
:101E4E0003138C1183160313941D1F2FF501F50A2E
:101E5E007508080083160313660883120313A60081
:101E6E002608A80083160313650883120313A60021
:101E7E002608A90028300A128A113D260A128A1550
:101E8E0029300A128A113D26080005340034063422
:101E9E0000340734003408340034093400348534F7
:101EAE000034863400348734003488340034893466
:101EBE000034013468345A3462342A341A346234A9
:101ECE002A345A346234F500831603138C158D159B
:101EDE00831203138C118D117508083E8400831331
:101EEE000008F400740883160313B6007508093E43
:101EFE0084000008F4007408B50075080A3E8400DA
:101F0E000008F4007408B4008B170B170800831236
:101F1E000313A000A101A10A2008031D7508031DCB
:101F2E009A2FA101B32F740893008316031314186C
:101F3E009C2F831203138C1183160313111BAC2FCA
:101F4E007508840083138001B32F111FB32F7508FA
:101F5E00840083138001800A8312210808008312F3
:101F6E000313A600B9300A128A151B270A128A1506
:101F7E0083120313A300230883160313DD008312B9
:101F8E0003132208A3002308F4006E30A4002408D3
:101F9E00F500B9300A128A158E270A128A15831295
:101FAE000313A500250883160313DD008312031304
:101FBE002608A3002308F4006E30A4002408F500C0
:101FCE00B9300A128A158E270A128A158312031344
:101FDE00A500250883160313DD00B9300A128A11F5
:101FEE00E72783120313A300230883160313DD00D0
:021FFE000800D9
:08400000FF3FFF3FFF3FFF3FC0
:02400E00713F00
:00000001FF
