:060000000A128A11122809
:10000800FE00030EF5000408F6000A08F700831244
:1000180003137F08F8000A128A11AC2A0A128A11FF
:1000280015288313B230FD000430FE008830FF002D
:10003800A03084000A128A119E240A128A113F30C5
:10004800FD000430FE002330FF00203084000A1237
:100058008A119E240A128A113F3084005C300A12E9
:100068008A11BF24F901FA01FB01FC01FD0183019A
:100078000A128A1149283F28FF0000308A007F08A9
:10008800820745280A128A11B62C3E300A128A11B4
:1000980054230A128A1183120313ED006D08AA0073
:1000A8003D300A128A1154230A128A11831203134B
:1000B800ED006D08AA003C300A128A1154230A1276
:1000C8008A1183120313ED006D08AA003B300A124F
:1000D8008A1154230A128A1183120313ED006D0842
:1000E800AA0036300A128A1184210A128A11831250
:1000F8000313ED006D08AA0061307D06031DB028CA
:100108003E300A128A11E5220A128A118312031359
:10011800ED006D08AA003D300A128A111D230A124B
:100128008A1183120313ED006D08AA003C300A12ED
:100138008A111D230A128A1183120313ED006D0818
:10014800AA003B300A128A111D230A128A1183124F
:100158000313ED006D08AA0062307D06031DE02838
:100168003E300A128A111D230A128A1183120313C0
:10017800ED006D08AA003D300A128A11E5220A1224
:100188008A1183120313ED006D08AA003C300A128D
:100198008A111D230A128A1183120313ED006D08B8
:1001A800AA003B300A128A111D230A128A118312EF
:1001B8000313ED006D08AA0063307D06031D802837
:1001C8003E300A128A111D230A128A118312031360
:1001D800ED006D08AA003D300A128A111D230A128B
:1001E8008A1183120313ED006D08AA003C300A122D
:1001F8008A11E5220A128A1183120313ED006D0891
:10020800AA003B300A128A111D230A128A117B2880
:1002180083120313E400E301E30A640803192129A4
:10022800640884008313000CDD00DD0C5D0C0739C5
:10023800DE0008305E02031C7229E30182290130C6
:10024800DD0064088400000CDE00DE0C5E0C07395B
:10025800013E30290310DD0DFF3E031D2E295D08E8
:10026800DF006408840000080739E0006007203ECA
:1002780084000008E100840A0008E20061088400A4
:100288008317621C83135F08800482290130DD0014
:1002980064088400000CDE00DE0C5E0C0739013EA9
:1002A80057290310DD0DFF3E031D55295D08FF3A50
:1002B800DF006408840000080739E0006007203E7A
:1002C80084000008E100840A0008E2006108840054
:1002D8008317621C83135F08800582295C08DD0090
:1002E800DE015E08003A03197A2921295D08003ADF
:1002F80003194A29013A0319232921296308080007
:1003080083120313EC00EB01EB0A6C08031D8E2922
:10031800EB01F72994126C080A128A116B220A124F
:100328008A11831203136C08033E8400033083137D
:1003380000060319B2296C08033E84000230000647
:100348000319B2296C08033E840000030319B2297B
:100358006C08033E84000008031DB8296C080A12C3
:100368008A1142240A128A11831203136C08033E6D
:1003780084000530831300060319C9296C08033E5D
:10038800840004300006031DCF296C080A128A1164
:1003980088230A128A11831203136C0884008313BA
:1003A800000C031C1412031814166C0A8400000CA9
:1003B80083160313031C141303181417831203134F
:1003C8006C08023E8400000C83160313031C94136C
:1003D80003189417831203136C080A128A117524E0
:1003E8008312031394166B08080083120313E300A7
:1003F800E201E20A6308031D522AE201692A013078
:10040800DC0063088400000CDD00DD0C5D0C07399E
:10041800013E102A0310DC0DFF3E031D0E2A5C0866
:10042800FF3ADE006308840000080739DF005F0731
:10043800A03E84000008E000840A0008E10060088B
:1004480084008317611C83135E088005692A0130C4
:10045800DC0063088400000CDD00DD0C5D0C07394E
:10046800013E382A0310DC0DFF3E031D362A5C08C6
:10047800DE006308840000080739DF005F07A03E3C
:1004880084000008E000840A0008E1006008840095
:100498008317611C83135E088004692A630884003B
:1004A8008313000EDC00DC0C5C0C0139DD00DE017E
:1004B8005E08003A0319612A012A5D08003A031907
:1004C800032A013A03192B2A012A62080800831219
:1004D8000313DE008B2A1408F03901389400080051
:1004E8001408F0390438940008001408F039033867
:1004F800940008001408F039023894000800140821
:10050800F039013894000800F030940508005E08BE
:10051800033E840083130008DC00DD015D08003A17
:100528000319972AAB2A5C08003A0319882A013A6A
:100538000319832A033A03197E2A013A0319792AEF
:10054800073A0319742A013A03196F2AAB2A0800DB
:100558000C080C1DB42A0A128A11CF240A128A1117
:10056800831203130D1CBD2A0A128A11CB240A1206
:100578008A11831203130C1EC62A0A128A11C72471
:100588000A128A11831203138C1ECF2A0A128A11A7
:10059800D3240A128A11831203138C1DD82A0A1233
:1005A8008A11AB240A128A11780883120313FF00F8
:1005B80077088A0076088400750E8300FE0E7E0E8A
:1005C800090083120313E800E601E60A6808031D20
:1005D800EF2AE601192B5608E5006508E7006808C8
:1005E8008400831300080F39E50067086506F839A9
:1005F8006506E70068088400000E0739E500E50D88
:10060800E50DE50D67086506C7396506E700671358
:1006180068088400E713801BE71783120313DC01C3
:10062800DC0A67300A128A110C2183120313660848
:10063800080083120313E800E601E60A6808031DB0
:10064800272BE601502B5508E5006508E7006808E8
:100658008400831300080F39E50067086506F83938
:100668006506E70068088400000E0739E500E50D17
:10067800E50DE50D67086506C7396506E7006713E8
:1006880068088400E713801BE71783120313DC0153
:1006980067300A128A110C218312031366080800B6
:1006A80083120313EB00E901E90A6B08031D5E2BB3
:1006B800E901842B5708E8006808EA006B08840001
:1006C800831300080F39E8006A086806F8396806D5
:1006D800EA006B088400000E0739E800E80DE80D11
:1006E800E80D6A086806C7396806EA006A136B08E5
:1006F8008400EA13801BEA176A300A128A11BC23A5
:10070800831203136908080083120313E6002E08F6
:10071800E4006408E7002D08E4006408E8002C08F9
:10072800E4006408E9002B08E4006408EA00673084
:100738000A128A11F9210A128A1168300A128A11DA
:10074800F9210A128A1169300A128A11F9210A124A
:100758008A11831203136608033E8400043083134E
:100768000006031D08006A300A128A11F9210800E0
:1007780083120313E7006708031DC42BE601DF2B70
:1007880067080A128A11F9210A128A1183120313BF
:10079800E5006508E6006708840000308313801BC5
:1007A8000130DC0067080A128A110C218312031336
:0A07B800E5006508E6006608080089
:1008000004308A000408840A8207003437343834FC
:1008100039342F343434353436342A3431343234A4
:1008200033342D34233430343D342B34013400340C
:100830000A34003464340034E83403341034273488
:100840002534693400340534003406340034073468
:1008500000340834003409340034013468345A3424
:1008600062342A341A3462342A34013401340134B3
:10087000013400340134003404340134313421347F
:1008800011340134831203133108E4006408E700D3
:100890003008E4006408E8002F08E4006408E90078
:1008A00067300A128A11F9210A128A1168300A1275
:1008B0008A11F9210A128A1169300A128A11F92162
:1008C0000800F300730803190800700803190800F2
:1008D00083160313141C682C831203131308F100EE
:1008E0007008840071088000080083120313DD0083
:1008F0008B170B17831603138C15831203135D08D4
:10090000043E840083130008DC005C08F900080042
:10091000853400348634003487340034883400341D
:100920008934003402340A3412341A3462346A349A
:1009300072347A347E088A007F0882009A240A1270
:100940008A118000840A04087D0603190034FF0A16
:100950000319FE0A9E2C831203138C1179080319C4
:10096000080079080A128A11402008007D30F4003E
:100970007408F00036300A128A11612408006400FD
:100980008001840A0406031900340406C02C83166F
:1009900003130C120800831203130D1008008312B6
:0809A00003130C11080008000C
:08400000FF3FFF3FFF3FFF3FC0
:02400E00713F00
:00000001FF
