:100000000A128A1110280800FE00030EF2000A08E6
:10001000F300831203137F08F4000A128A11282CBC
:100020000A128A1113288313E630FD000730FE0000
:10003000C030FF00C83084000A128A15D8270A127F
:100040008A110A128A11FC270A128A11F5000A1273
:100050008A11FD270A128A11F6000A128A11FE2758
:100060000A128A11F7000A128A11FF270A128A114E
:10007000F800A0308400C8300A128A159A270A12A4
:100080008A116730840070300A128A159A27F901A4
:1000900083010A128A11DE2F4C28FF0000308A00EB
:1000A0007F08820752280A128A158B2F83120313A6
:1000B0004B088039D0005008D8004B08D0005007BA
:1000C000D1005108DA00CA1B5A145A0803197628BD
:1000D0005A0A031D73280030CB000030CA000030DC
:1000E000C9000030C800CA17CB017E280030CB0001
:1000F0000030CA000030C9000030C8004F08803905
:10010000D0005008D90059085806031D58174F0849
:10011000D0005007D1005108D900CE1B59145908FE
:100120000319A028590A031D9D280030CF00003074
:10013000CE000030CD000030CC00CE17CF01A82873
:100140000030CF000030CE000030CD000030CC00B9
:100150005A0859020318EE28581FB2288030D000E0
:100160005008D8065A08D0005008DB005908D000C3
:100170005008DA005B08D0005008D9004808D000C9
:100180005008DB004C08D0005008C8005B08D000C5
:100190005008CC004908D0005008DB004D08D000C2
:1001A0005008C9005B08D0005008CD004A08D000B4
:1001B0005008DB004E08D0005008CA005B08D00091
:1001C0005008CE004B08D0005008DB004F08D0008C
:1001D0005008CB005B08D0005008CF00DB01590865
:1001E000D000D1015108D3005A085002D200031C9C
:1001F000D3035308803AFF0080307F02031D022999
:100200001A305202031C3B29831203134B084A0481
:100210004904480403190E2901300F290030D00089
:100220005008DB000030CB000030CA000030C900AD
:100230000030C8005908D0005008DA0041295B1C82
:100240002A295B08D0000310500C0138D100510856
:10025000DB002C290310DB0C4818DB170130D00021
:100260004B0DCB0CCA0CC90CC80CD00B302901307B
:10027000D0005008DA078312031359085A02031CEE
:100280001F29581B82295A08031D4F290030CB0013
:100290000030CA000030C9000030C80008004C0817
:1002A000C8074D0803110318013E031DC9074E0876
:1002B00003110318013E031DCA074F080311031859
:1002C000013E031DCB074B1C242A5B1C70295B08D5
:1002D000D0000310500C0138D1005108DB00722906
:1002E0000310DB0C4818DB170130D0004B0DCB0C92
:1002F000CA0CC90CC80CD00B76290130D0005008AC
:10030000DA07242A4B08803AFF004F08803A7F0220
:10031000031D94294E084A02031D94294D084902E1
:10032000031D94294C0848020318EC29FF30D00023
:10033000FF30D100FF30D200FF30D3004C08D40092
:100340004D08D5004E08D6004F08D7004808D40203
:100350004908031C490FAD29AE29D5024A08031CE0
:100360004A0FB329B429D6024B08031C4B0FB929F5
:10037000BA29D7025408D00755080318550FC129C8
:10038000C229D10756080318560FC729C829D20712
:1003900057080318570AD3075308CB005208CA005E
:1003A0005108C9005008C8008030D0005008D80655
:1003B000DB09DB0A5B08031DFA290130C80700309E
:1003C00003180130C907003003180130CA07003094
:1003D00003180130CB07FA294C08C8024D08031C4A
:1003E0004D0FC9024E08031C4E0FCA024F08031CD2
:1003F0004F0FCB024B084A0449044804031D222A2C
:100400005B08031D222A0030CB000030CA000030F8
:10041000C9000030C80008000130D0000310C80D2A
:10042000C90DCA0DCB0DD00B0E2ADB1B48145B1C6B
:100430001B2A03141C2A0310DB0D5A080319222A55
:100440000130DA02CA1F0C2AD901DB1F2F2A5B08F0
:100450007F39031948182D2A2F2AD901D90A59089A
:100460000319622A0130C807003003180130C90798
:10047000003003180130CA07003003180130CB07E1
:100480004B1C622A4808D0004908D1004A08D20013
:100490004B08D3000130D400530DD30CD20CD10C37
:1004A000D00CD40B4C2A5308CB005208CA00510878
:1004B000C9005008C8005A0A0319622A0130D00046
:1004C0005008DA075A0A031D5A08031D722A003021
:1004D000CB000030CA000030C9000030C8005A0804
:1004E0000319D8015A1C762ACA177A2A7F30D000FD
:1004F0005008CA055A08D0000310500CD10051080A
:10050000CB00D81F0800CB1708008312031335084F
:100510008039B6003608BF003508B6003607B70088
:100520003708C600B41B461446080319A52A460A14
:10053000031DA22A0030B5000030B4000030B30023
:100540000030B200B417B501AD2A0030B50000305C
:10055000B4000030B3000030B20031088039B6007A
:100560003608BF063108B6003607B7003708C7009F
:10057000B01B471447080319CB2A470A031DC82A92
:100580000030B1000030B0000030AF000030AE00ED
:10059000B017B101D32A0030B1000030B0000030F4
:1005A000AF000030AE00310830042F042E04031DCC
:1005B000F22A0030B5000030B4000030B300003043
:1005C000B2008030B4047F30B5043F08B60036086E
:1005D000B5043508B1003408B0003308AF00320864
:1005E000AE0008004608031DFE2A0030B1000030AE
:1005F000B0000030AF000030AE0008004608B60082
:10060000B7013708B90047083602B800031CB90320
:1006100038087F3EC00039080318013E003EC10083
:100620003508BE003408BD003308BC003208BB00EA
:100630000030B5000030B4000030B3000030B2002C
:100640000030C5000030C4000030C3000030C200DC
:10065000C7011A3047020318712B470803194D2BA5
:100660000130B6000310BB0DBC0DBD0DBE0DB60BA9
:10067000322B0130B6000310B20DB30DB40DB50D21
:10068000B60B3B2BC51B32140130B6000310C20D54
:10069000C30DC40DC50DB60B462B31083E02031D1C
:1006A0005B2B30083D02031D5B2B2F083C02031D12
:1006B0005B2B2E083B02031C6C2B45172E08BB023C
:1006C0002F08031C2F0FBC023008031C300FBD0283
:1006D0003108031C310FBE020130B6003608C707CF
:1006E000292B3E083D043C043B04031D4214B41B6B
:1006F000942B0130B6000310B20DB30DB40DB50D3F
:10070000B60B7B2BC51B32140130B6000310C20D93
:10071000C30DC40DC50DB60B862BFF30C0070318E3
:10072000C10AFF30C107772BC701C51FAD2BFF30B2
:100730004205B600FF304305B700FF304405B8005E
:100740007F304505B90039083804370436040319E9
:100750003218AB2BAD2BC701C70A47080319DF2B93
:100760000130B207003003180130B307003003181E
:100770000130B407003003180130B507351CDF2BFA
:100780003208B6003308B7003408B8003508B9009D
:100790000130BA00390DB90CB80CB70CB60CBA0B55
:1007A000CA2B3908B5003808B4003708B30036083A
:1007B000B2000130C0070318C10A0030C107410868
:1007C000803AFF0080307F02031DE82BFF3040029B
:1007D000031CF82BFF3083120313C0000030C1004C
:1007E0000030B5000030B4000030B3000030B2007B
:1007F000831203134108803AFF0080307F02031DFB
:10080000032C013040020318122C83120313C00181
:10081000C1010030B5000030B4000030B30000303A
:10082000B200BF01831203134008B6003608C600A9
:10083000461C1C2CB417202C7F30B6003608B4059B
:100840004608B6000310360CB7003708B500E52A95
:100850008B1C2F2C0A128A155D270A128A110B1C79
:100860003F2C83120313061E3F2C7803031D3F2CDD
:10087000F80100300A128A1573270A128A110B1C1C
:10088000522C83120313061A522C7808031D522C83
:100890000130F1007108F80001300A128A1573273F
:1008A0000A128A110B1C622C83120313861E622CFF
:1008B0007703031D622CF70100300A128A1579278D
:1008C0000A128A110B1C752C83120313861A752CBD
:1008D0007708031D752C0130F1007108F700013015
:1008E0000A128A1579270A128A110B1C852C831289
:1008F0000313061F852C7603031D852CF60100309B
:100900000A128A157F270A128A110B1C982C83124F
:100910000313061B982C7608031D982C0130F10058
:100920007108F60001300A128A157F270A128A110F
:100930000B1CA82C83120313861FA82C7503031D00
:10094000A82CF50100300A128A1585270A128A118F
:100950000B1CBB2C83120313861BBB2C7508031DB9
:10096000BB2C0130F1007108F50001300A128A1524
:1009700085270A128A11831203130C1FC42C0A1232
:100980008A155F270A128A110B1DCB2C0A128A15B1
:1009900092270A128A11831203130C1CD42C0A12F8
:1009A0008A15C4270A128A11831203138C1CDD2CAA
:1009B0000A128A15A2270A128A11831203130C1D28
:1009C000E62C0A128A1563270A128A11831203136E
:1009D0000D1CEF2C0A128A1567270A128A1183123E
:1009E00003130C1EF82C0A128A156F270A128A119B
:1009F000831203138C1E012D0A128A1103200A127E
:100A00008A11831203138C1D0A2D0A128A15AC2732
:100A10000A128A11831603138D1D132D0A128A15CB
:100A20006B270A128A11740883120313FF007308DC
:100A30008A00720E8300FE0E7E0E090083120313DD
:100A4000A8002808031DA31F352D2009AA0021098D
:100A5000AB002209AC002309AD00AA0A0319AB0AB6
:100A60000319AC0A0319AD0A3D2D2308AD00220875
:100A7000AC002108AB002008AA00230822042104AE
:100A80002004031D4C2D0030A3000030A2000030D4
:100A9000A1000030A00008009630A4002408A9009E
:100AA000FE302D0503197D2D0130A4002408A9076F
:100AB00001300310AD0CAC0CAB0CAA0CFF3E031DB7
:100AC000592D502D0130A4002408A9070130AA0790
:100AD000003003180130AB07003003180130AC07B9
:100AE000003003180130AD0701300310AD0CAC0C21
:100AF000AB0CAA0CFF3E031D752DFF302D0503190D
:100B0000912D622D02302902031C932D0130A90280
:100B10000130A4000310AA0DAB0DAC0DAD0DA40B5C
:100B20008A2DAC1F822D29189D2DFF30AA05FF307C
:100B3000AB057F30AC05FF30AD050310A90C2908CB
:100B4000A400A501A601A70118300310A40DA50D4E
:100B5000A60DA70DFF3E031DA52D2408AA042508F8
:100B6000AB042608AC042708AD042808031DA31F06
:100B7000BA2DAD172D08A3002C08A2002B08A10048
:100B80002A08A000080083120313A700A601A60AE2
:100B90002708031D1C2EA601332E0130A0002708B4
:100BA0008400000CA100A10C210C0739013EDA2DB4
:100BB0000310A00DFF3E031DD82D2008FF3AA20010
:100BC0002708840000080739A3002307D23E8400C9
:100BD0000008A400840A0008A500240884008317E4
:100BE000251C831322088005332E0130A00027081E
:100BF0008400000CA100A10C210C0739013E022E3B
:100C00000310A00DFF3E031D002E2008A2002708A0
:100C1000840000080739A3002307D23E840000089F
:100C2000A400840A0008A500240884008317251C5A
:100C3000831322088004332E270884008313000EB8
:100C4000A000A00C200C0139A100A2012208003A4A
:100C500003192B2ECB2D2108003A0319CD2D013A73
:100C60000319F52DCB2D260808000310831203135A
:100C70005E0D5F0DE0006008E6006608031D492E6A
:100C80000030DF000030DE000030DD000030DC002E
:100C900008005C08E0005D08E1005E08E2005F0813
:100CA000E3001F300310E30CE20CE10CE00CFF3E0C
:100CB000031D522E6008E4006408E500DE17FF30D3
:100CC000DC05FF30DD05FF30DE050030DF05963046
:100CD000E602E61F802E6608803A973E031C402EEF
:100CE00001300310DF0CDE0CDD0CDC0CFF3E031DBD
:100CF000712E0130E0006008E6070319932E702E74
:100D0000203066020318402E66080319932E013026
:100D1000E0000310DC0DDD0DDE0DDF0DE00B892E94
:100D20000130E602842E650803190800DC09DD099C
:100D3000DE09DF09DC0A0319DD0A0319DE0A0319DB
:100D4000DF0A080083160313E800E701E70A6808D2
:100D5000031DAC2EE701082F831203139412831690
:100D600003136808053E84008313001CBE2E680828
:100D70000A128A110C270A128A11E12E6808053E10
:100D800084000018E12E6808073E8400001CCA2E6B
:100D90009117CF2E6808073E8400001C9113831220
:100DA0000313141694131413831603136808063ED2
:100DB00084000008930068080A128A15B7270A12EF
:100DC0008A110A128A15E5270A128A11831603135B
:100DD0006808053E840083130019F02E9413F52E45
:100DE0006808053E8400001994176808053E8400D1
:100DF000801CFC2E1417012F6808053E8400801CFF
:100E0000141368080A128A117327831203139416A5
:100E1000831603136708080083160313E6006608A9
:100E2000043E840083120313140883130006F03970
:100E3000000694004930B5007430B4002430B3008B
:100E40000030B20083160313660884000008831282
:100E50000313A000840A0008A100840A0008A2006D
:100E6000840A0008A30001300A128A111E250A1202
:100E70008A11831203132308B1002208B00021084D
:100E8000AF002008AE000A128A1185220A128A11C8
:100E9000831203133108CF003008CE002F08CD0095
:100EA0002E08CC00BF30CB008030CA000030C90013
:100EB0000030C8000A128A1156200A128A118312C1
:100EC00003134B08DF004A08DE004908DD0048082C
:100ED000DC000A128A113526831203135C0883167C
:100EE00003139300080083120313A1008316031356
:100EF0008C158D15831203138C118D112108083E5A
:100F0000840083130008A000200883160313B60092
:100F1000831203132108093E84000008A000200862
:100F2000F90021080A3E84000008A000200883166A
:100F30000313B5008B170B17080007308A0004084D
:100F4000840A820700343734383439342F34343447
:100F5000353436342A343134323433342D34233476
:100F600030343D342B34013400340A3400346434DA
:100F70000034E83403341034273425346934003421
:100F800005340034063400340734003408340034A7
:100F90000934003485340034863400348734003416
:100FA0008834003489340034013468345A3462346B
:100FB0002A341A3462342A345A34623483160313BE
:100FC000BD103D103D156030E9006908BE000630D7
:100FD000E9006908BC000130E9006908C1003F1060
:100FE000B8300A128A11A2260A128A118316031334
:100FF000E9006908DC00FB2F0134013401340134BD
:101EBA008B100800831203130C13080083120313F8
:101ECA000C110800831203130D1008008312031368
:101EDA008D110800831603130C120800F0000B1072
:101EEA007003031D08000800F0000B107003031DA7
:101EFA0008000800F0000B107003031D080008001A
:101F0A00F0000B107003031D080008000130F000F8
:101F1A00700883160313A2070800831603132B08FD
:101F2A008312031381000B11080064008001840AE4
:101F3A0004060319003404069B2F831203138C1022
:101F4A0083160313280883120313910008008312CF
:101F5A0003138C1179080319080079080A128A11E7
:101F6A004D20080083120313A0002008043E8400B9
:101F7A00140883130006F03900069400080083123F
:101F8A0003130C10831603132108831203138F0003
:101F9A00831603132008831203138E0008007E0899
:101FAA008A007F088200D4270A128A158000840AD0
:101FBA0004087D0603190034FF0A0319FE0AD82F04
:101FCA0083160313650883120313A8002808AA00BE
:101FDA0083160313640883120313A8002808AB00AE
:101FEA002A300A128A11C3250A128A152B300A12BC
:061FFA008A11C325080056
:08400000FF3FFF3FFF3FFF3FC0
:02400E00713F00
:00000001FF
