:060000000A128A110C280F
:10000800FE00030EF2000A08F3000A128A1165299D
:100018000A128A110F288313B430FD000530FE0040
:10002800E430FF00A03084000A128A110F260A1259
:100038008A115E30FD000530FE009130FF003F3030
:1000480084000A128A110F260A128A110A128A11CA
:1000580061260A128A11F6000A128A1162260A1209
:100068008A11F7000A128A1163260A128A11F80007
:100078000A128A1164260A128A11F90083160313D8
:10008800B401B501B601B701B801203084003F3092
:100098000A128A112D2683010A128A1153285D300B
:1000A8000A128A11E1240A128A1183120313ED003D
:1000B8006D08BF005C300A128A11E1240A128A1105
:1000C80083120313ED006D08BF005B300A128A111A
:1000D800E1240A128A1183120313ED006D08BF0090
:1000E8005A300A128A11E1240A128A118312031360
:1000F800ED006D08BF0054300A128A11F8250A1263
:100108008A1183120313ED006D08BF0051300A12E3
:100118008A11F8250A128A1183120313ED006D085B
:10012800BF004E300A128A11F8250A128A1183126A
:100138000313ED006D08BF0049300A128A11C62268
:100148000A128A11FE286130ED006D08F40049306A
:100158000A128A11CF250A128A1183120313EE009C
:100168006E08BF005D300A128A1176240A128A11BD
:1001780083120313ED006D08BF005C300A128A1168
:10018800AC240A128A11E8286230ED006D08F400E8
:1001980049300A128A11CF250A128A1183120313D1
:1001A800EE006E08BF005D300A128A11AC240A12F4
:1001B8008A1183120313ED006D08BF005C300A1228
:1001C8008A1176240A128A1183120313ED006D082E
:1001D800BF005B300A128A11AC240A128A118312FA
:1001E8000313ED006D08BF005A300A128A11AC24BF
:1001F8000A128A1183120313ED006D08BF005930EB
:10020800ED006D08F50054300A128A11F3230A1222
:100218008A1183120313EE006E08BF005830ED00F8
:100228006D08F50051300A128A11F3230A128A1157
:1002380083120313EE006E08BF005730ED006D08FF
:10024800F5004E300A128A11F3230A128A1183121A
:100258000313EE006E08BF0059080319A7285808B1
:100268000319C8285708031D03296330ED006D08DA
:10027800F40049300A128A11CF250A128A11831212
:100288000313EE006E08BF005D300A128A11AC2419
:100298000A128A1183120313ED006D08BF005C3047
:1002A8000A128A11AC240A128A1183120313ED0070
:1002B8006D08BF005B300A128A1176240A128A116F
:1002C800F3288B1C6C290A128A1179260A128A11C2
:1002D8000B1C7C2983120313061E7C297903031D3A
:1002E8007C29F90100300A128A115B260A128A1148
:1002F8000B1C8F2983120313061A8F297908031DF3
:100308008F290130F1007108F90001300A128A11B1
:100318005B260A128A110B1C9F2983120313861E5F
:100328009F297803031D9F29F80100300A128A11BA
:1003380055260A128A110B1CB22983120313861A36
:10034800B2297808031DB2290130F1007108F800BC
:1003580001300A128A1155260A128A110B1CC22969
:1003680083120313061FC2297703031DC229F7014D
:1003780000300A128A114F260A128A110B1CD5293D
:1003880083120313061BD5297708031DD5290130CD
:10039800F1007108F70001300A128A114F260A127B
:1003A8008A110B1CE52983120313861FE52976039E
:1003B800031DE529F60100300A128A1149260A129E
:1003C8008A110B1CF82983120313861BF829760857
:1003D800031DF8290130F1007108F60001300A12F6
:1003E8008A1149260A128A11831203130C1F012A43
:1003F8000A128A1175260A128A110B1D082A0A1276
:100408008A1143260A128A11831203130C1C112A1B
:100418000A128A1135260A128A11831203138C1CB8
:100428001A2A0A128A113D260A128A118312031304
:100438000C1D232A0A128A1171260A128A118312A4
:1004480003130D1C2C2A0A128A116D260A128A110E
:10045800831203130C1E352A0A128A1165260A1202
:100468008A11831203138C1E3E2A0A128A117B26D4
:100478000A128A11831203138C1D472A0A128A1141
:1004880069260A128A1173088A00720E8300FE0E0A
:100498007E0E090083120313E500E401E40A6508EF
:1004A8000319632A650884008313000CDE00DE0C40
:1004B8005E0C0739DF0008305F02031CB42AE40130
:1004C800C42A0130DE0065088400000CDF00DF0C60
:1004D8005F0C0739013E722A0310DE0DFF3E031D33
:1004E800702A5E08E0006508840000080739E1000A
:1004F8006107A03E84000008E200840A0008E300C7
:10050800620884008317631C831360088004C42A6C
:100518000130DE0065088400000CDF00DF0C5F0C92
:100528000739013E992A0310DE0DFF3E031D972A65
:100538005E08FF3AE0006508840000080739E1001A
:100548006107A03E84000008E200840A0008E30076
:10055800620884008317631C831360088005C42A1B
:100568007408DE00DF015F08003A0319BC2A632A19
:100578005E08003A03198C2A013A0319652A632A8E
:100588006408080083120313EC00EB01EB0A6C0803
:10059800031DD02AEB01392B94126C080A128A1118
:1005A80035240A128A11831203136C08033E84004F
:1005B8000330831300060319F42A6C08033E8400F1
:1005C800023000060319F42A6C08033E8400000375
:1005D8000319F42A6C08033E84000008031DFA2A54
:1005E8006C080A128A11B0250A128A1183120313A1
:1005F8006C08033E840005308313000603190B2B97
:100608006C08033E840004300006031D112B6C089F
:100618000A128A1115250A128A11831203136C080B
:1006280084008313000C031C1412031814166C0A9C
:100638008400000C83160313031C141303181417E7
:10064800831203136C08023E8400000C8316031304
:10065800031C941303189417831203136C080A12CB
:100668008A111C268312031394166B080800F500E0
:10067800F401F40A7508031D922BF401AB2B013029
:10068800DE0075088400000CDF00DF0C5F0C073902
:10069800013E502B0310DE0DFF3E031D4E2B5E085E
:1006A800FF3AE0007508840000080739E100610797
:1006B800AA3E84000008E200840A0008E3006208F9
:1006C80084008317631C831360088005AB2B0130FB
:1006D800DE0075088400000CDF00DF0C5F0C0739B2
:1006E800013E782B0310DE0DFF3E031D762B5E08BE
:1006F800E0007508840000080739E1006107AA3E98
:1007080084000008E200840A0008E300620884000C
:100718008317631C831360088004AB2B750884005F
:100728008313000E83120313DE00DE0C5E0C013906
:10073800DF00E0016008003A0319A32B412B5F0892
:10074800003A0319432B013A03196B2B412B740808
:10075800080083120313E500E401E40A650803199D
:10076800C52B74080319C52B650884008313000C76
:10077800DE00DE0C5E0C0739DF0008305F02031C68
:10078800C72BE401F12B6508840000080739DE0057
:100798005E07A03E84000008DF00840A0008E0002D
:1007A8005F0884008317601C83130008E100650854
:1007B80084008313000CE200E20C620C0739013E4E
:1007C800E72B0310E10CFF3E031DE52B61080139FF
:1007D800E30074088400630880006408080083123A
:1007E8000313E900E801EA016908031D7508031D00
:1007F800FF2BE801332C6A30E6006608F40069082C
:100808000A128A11AD230A128A111D2C6A03031DCC
:10081800112C750884008001332C75088400800130
:10082800800A332C6A030319112C0D2CE801E80AFD
:10083800332C831203136908023E840083130008D3
:10084800E600E7016708003A03192B2C1A2C660802
:10085800003A03190A2C013A0319162C1A2C6808B5
:10086800080083120313DE00552C1408F0390138F0
:10087800940008001408F03904389400080014089B
:10088800F0390338940008001408F039023894004D
:1008980008001408F039013894000800F030940575
:1008A80008005E08033E840083130008F400F50185
:1008B8007508003A0319612C752C7408003A03195D
:1008C800522C013A03194D2C033A0319482C013ACA
:1008D8000319432C073A03193E2C013A0319392C02
:1008E800752C080083120313E800E601E60A68087D
:1008F800031D802CE601A82C3D08F5007508E700CB
:1009080068088400831300080F39F5006708750626
:10091800F8397506E70068088400000E0739F50005
:10092800F50DF50DF50D67087506C7397506E7006D
:10093800671368088400E713801BE717F401F40ABB
:1009480067300A128A114E228312031366080800C0
:1009580083120313E800E601E60A6808031DB62CB3
:10096800E601DD2C3C08F5007508E70068088400FE
:10097800831300080F39F50067087506F8397506FE
:10098800E70068088400000E0739F500F50DF50D3D
:10099800F50D67087506C7397506E7006713680817
:1009A8008400E713801BE717F40167300A128A11E5
:1009B8004E22831203136608080083120313EB0008
:1009C800EA01EA0A6B08031DEB2CEA01112D3E0827
:1009D800E9006908EC006B088400831300080F39EC
:1009E800E9006C086906F8396906EC006B088400B0
:1009F800000E0739E900E90DE90DE90D6C086906F3
:100A0800C7396906EC006C136B088400EC13801B73
:100A1800EC176C300A128A114925831203136A08ED
:100A2800080083120313E5004308E4006408E700A4
:100A38004208E4006408E8004108E4006408E900AA
:100A48004008E4006408EA0067300A128A113B2370
:100A58000A128A1168300A128A113B230A128A1173
:100A680069300A128A113B230A128A11831203136E
:100A78006508033E8400043083130006031D080044
:100A88006A300A128A113B23080083120313E80014
:100A98006808031D512DE7016C2D68080A128A1198
:100AA8003B230A128A1183120313E6006608E70043
:100AB8006808840000308313801B0130F400680844
:100AC8000A128A114E2283120313E6006608E70011
:100AD8006708080005308A000408840A8207003481
:100AE8003734383439342F343434353436342A34BE
:100AF8003134323433342D34233430343D342B34D0
:100B0800013400340A34003464340034E8340334E3
:100B180010342734253469340034013468345A34A5
:100B280062342A341A3462342A345A34623400342F
:100B38000134003400340034513401340034493471
:100B480001340034413401340034013401340134B7
:100B58006134513441343134831203134608E400BC
:100B68006408E7004508E4006408E8004408E40075
:100B78006408E90067300A128A113B230A128A11B5
:100B880068300A128A113B230A128A1169300A1244
:100B98008A113B23080083120313DF00DE01DE0AFB
:100BA8005F08031DD92DDE01E22D7408930083161A
:100BB8000313141CDB2D831203138C115E08080029
:100BC8000534003406340034073400340834003463
:100BD80009340034853400348634003487340034D2
:100BE800883400348934003483120313E60066081D
:100BF800031D002EE501092E66080A128A113B23FF
:100C080083120313E4006408E500650808007E0801
:100C18008A007F0882000B260A128A118000840A43
:100C280004087D0603190034FF0A0319FE0A0F2E73
:100C3800F5008B170B17831603138C157508043EE4
:100C4800840083130008F400740883120313AB00B4
:100C5800080064008001840A0406031900340406AD
:100C68002E2E831203130C1021088F0020088E00EB
:100C78000800831203138C102708910008008312C0
:100C880003132A0881000B110800F0000B107003F1
:100C9800031D08000800F0000B107003031D080076
:100CA8000800F0000B107003031D08000800F00096
:100CB8000B107003031D08000800013401340134CF
:100CC8000134831603130C120800831203138C11CA
:100CD8000800831203130D100800831203130C116C
:100CE8000800831203130C1308008B100800080077
:08400000FF3FFF3FFF3FFF3FC0
:02400E00713F00
:00000001FF
